:1000000000308A0004280000840183131F30830518
:10001000713083168F000F0803170908C039890053
:1000200003131F129F1200300317880083128701E9
:1000300088018901FF300313A50000308316850075
:10004000860087008312A500831688000910891096
:1000500009118911831285018601870188018901AF
:100060001F179F1783169F1383121F1483160317DE
:100070000908C039890003131F129F121F3003178C
:100080008800831203132511250883168700831225
:100090000711831609130C308312970083169B01F6
:1000A0009C018312A51025088316870083128710F0
:1000B0000C309D000030F80005389200FF308316A8
:1000C00092007F30831295009B00FF30850007303F
:0400D0008900630040
:04400E00D52CFF3F6F
:00000001FF
;PIC16F887
;CRC=1A13  CREATED="02-nov-12 15:37"
